:020000021000EC
:10F000000C9490F80C94BDF80C94BDF80C94BDF8D9
:10F010000C94BDF80C94BDF80C94BDF80C94BDF89C
:10F020000C94BDF80C94BDF80C94BDF80C94BDF88C
:10F030000C94BDF80C94BDF80C94BDF80C94BDF87C
:10F040000C94BDF80C94BDF80C94BDF80C94BDF86C
:10F050000C94BDF80C94BDF80C94BDF80C94BDF85C
:10F060000C94BDF80C94BDF80C94BDF80C94BDF84C
:10F070000C94BDF80C94BDF80C94BDF80C94BDF83C
:10F080000C94BDF80C94BDF80C94BDF80C94BDF82C
:10F090000C94BDF80C94BDF80C94BDF80C94BDF81C
:10F0A0000C94BDF80C94BDF80C94BDF80C94BDF80C
:10F0B0000C94BDF80C94BDF80C94BDF80C94BDF8FC
:10F0C0000C94BDF80C94BDF80C94BDF80C94BDF8EC
:10F0D0000C94BDF80C94BDF80C94BDF80C94BDF8DC
:10F0E0000C94BDF80C94BDF80C94BDF80C94BDF8CC
:10F0F0000C94BDF80C94BDF80C94BDF80C94BDF8BC
:10F100000C94BDF80C94BDF80C94BDF80C94BDF8AB
:10F110000C94BDF80C94BDF80C94BDF80C94BDF89B
:10F1200011241FBECFEFD1E4DEBFCDBF84B78093E3
:10F130000D0384B7877F84BF88E10FB6F89480936E
:10F140006000109260000FBE12E0A0E0B2E0ECEBB5
:10F15000F8EF01E00BBF02C007900D92A230B1079B
:10F16000D9F713E0A2E0B2E001C01D92AD30B107C3
:10F17000E1F70E94CEF90C945CFC0C9400F890919D
:10F180000502913019F0923041F008959091C0003D
:10F1900095FFFCCF8093C60008959091C80095FF1D
:10F1A000FCCF8093CE000895CF93982F85958595B9
:10F1B00085958595805D9F709A3044F4C0E3C90FB2
:10F1C0000E94BFF88C2FCF910C94BFF8C7E5C90FF0
:10F1D0000E94BFF88C2FCF910C94BFF8CF92DF9292
:10F1E000EF92FF9280910502813061F1823031F01F
:10F1F00080E0FF90EF90DF90CF900895C12CD12C4C
:10F2000076018091C80087FD16C08FEFC81AD80A12
:10F21000E80AF80A81E4C81682E4D8068FE0E80616
:10F22000F10478F3E0910202F091030209958091D4
:10F23000C80087FFEACF8091CE00FF90EF90DF906B
:10F24000CF900895C12CD12C76018091C00087FD0C
:10F2500016C08FEFC81AD80AE80AF80A81E4C8165F
:10F2600082E4D8068FE0E806F10478F3E091020228
:10F27000F091030209958091C00087FFEACF809149
:10F28000C600FF90EF90DF90CF900895CF930E943B
:10F29000EEF8C82F0E94BFF8C1364CF4C03324F0FA
:10F2A00080ED8C0FCF9108958C2FCF91089589EA2E
:10F2B0008C0FCF910895CF930E9446F9C82F0E94DA
:10F2C00046F990E1C99F800D1124CF9108952091B6
:10F2D0000502815060F0213059F02230D1F7909131
:10F2E000C80097FFFCCF9091CE008150A0F7089501
:10F2F0009091C00097FFFCCF9091C600EACFCF93CA
:10F30000C82F0E94EEF8803279F0809104028F5F5E
:10F3100080930402853011F0CF910895E0910202AC
:10F32000F0910302CF91099484E10E94BFF88C2FE1
:10F330000E94BFF880E1CF910C94BFF80E94EEF8D4
:10F34000803269F0809104028F5F809304028530DF
:10F3500009F00895E0910202F0910302099484E11A
:10F360000E94BFF880E10C94BFF815C0299A2FEFD6
:10F3700031EE94E0215030409040E1F700C00000B1
:10F3800029982FEF31EE94E0215030409040E1F782
:10F3900000C0000081508111E9CF0895000081E094
:10F3A00080930502E0E0F0E0E49120E12093C400C6
:10F3B0001092C5001092C00096E09093C20088E1C0
:10F3C0008093C10030910502323051F42093CC007B
:10F3D0001092CD001092C8009093CA008093C9008B
:10F3E0006898709A219A9091050284E0890F9B3F5A
:10F3F000C1F0299A2FEF31EE94E021503040904037
:10F40000E1F700C000002998EFEFF1EE24E0E150B1
:10F41000F0402040E1F700C00000982F815091118A
:10F42000E8CF0E94EEF88033B1F18133B9F1803436
:10F4300009F454C0813409F45AC0823409F469C013
:10F44000853409F46CC0982F9D7F903521F181356A
:10F4500011F1853509F469C0863509F471C0843627
:10F4600009F477C0843709F4DFC0853709F43DC15A
:10F47000863709F44AC0809104028F5F80930402AA
:10F48000853079F6E0910202F091030209950E941D
:10F49000EEF8803351F60E949EF9C3CF0E94EEF839
:10F4A000803249F784E10E94BFF881E40E94BFF8EE
:10F4B00086E50E94BFF882E50E94BFF880E20E94C4
:10F4C000BFF889E40E94BFF883E50E94BFF880E599
:10F4D0000E94BFF880E10E94BFF8A3CF0E94EEF81F
:10F4E0008638C8F20E94EEF80E949EF99ACF0E94D8
:10F4F000EEF8803809F422C1813809F41BC1823842
:10F5000009F420C1883909F405C180E00E947FF91F
:10F5100088CF84E10E9467F90E949EF982CF85E03E
:10F520000E9467F90E949EF97CCF0E94EEF88093BA
:10F5300006020E94EEF8809307020E949EF971CFA6
:10F540000E94EEF8803309F4E9C083E00E9467F975
:10F55000DCCF0E94EEF8809309030E94EEF88093BE
:10F56000080380910C038E7F80930C030E94EEF8B9
:10F57000853409F401C18091080390910903892B16
:10F58000A1F068E0E62E62E0F62E00E010E00E94B6
:10F59000EEF8F70181937F010F5F1F4F8091080301
:10F5A000909109030817190790F30E94EEF8803232
:10F5B00009F061CF80910C03982F917080FFECC00F
:10F5C0008091060290910702880F991F909307027D
:10F5D000809306022091080330910903232BE9F060
:10F5E00048E0E42E42E0F42E00E010E0F7016191E3
:10F5F0007F010E944EFC80910602909107020196C5
:10F6000090930702809306020F5F1F4F209108031B
:10F61000309109030217130748F384E10E94BFF8F1
:10F6200080E10E94BFF8FDCE0E94EEF880930903AE
:10F630000E94EEF8809308038091060290910702E1
:10F6400020910C0397FDA4C02D7F20930C03880FFD
:10F65000991F90930702809306020E94EEF885346A
:10F6600009F490C080910C038E7F80930C030E945C
:10F67000EEF8803209F0D5CE84E10E94BFF8809187
:10F68000080390910903892B09F440C000E010E0C1
:10F6900019C0E0910602F091070284910E94BFF820
:10F6A0008091060290910702019690930702809341
:10F6B00006020F5F1F4F80910803909109030817FE
:10F6C000190720F580910C0380FD40C081FFE1CF38
:10F6D0008091060290910702A0E0B0E01196ABBFC6
:10F6E000FC0187910E94BFF8DBCF0E94EEF88032C8
:10F6F00009F0C1CE84E10E94BFF88EE10E94BFF8FC
:10F7000087EA0E94BFF881E00E94BFF880E10E9472
:10F71000BFF887CE83E00E947FF983CE0E94EEF887
:10F720000E94EEF8182F0E94EEF8112309F4A5C0EC
:10F730001130F1F081E00E947FF973CE82E00E94E7
:10F740007FF96FCE80E10E947FF96BCE8091060237
:10F75000909107020E9446FC0E94BFF88091060229
:10F760009091070201969093070280930602A1CF21
:10F7700087EA0E947FF955CE80910C0381608093C7
:10F780000C03F9CE80910C03816080930C036FCF42
:10F79000226020930C035BCF8091070287FD71C02C
:10F7A00010920B039BBF8091060290910702880F75
:10F7B000991F90930702809306028091080380FFAF
:10F7C00009C0809108039091090301969093090361
:10F7D00080930803F894F999FECF1127E09106026F
:10F7E000F0910702C8E0D2E08091080390910903EC
:10F7F000103091F40091570001700130D9F303E00B
:10F8000000935700E8950091570001700130D9F33B
:10F8100001E100935700E895099019900091570075
:10F8200001700130D9F301E000935700E89513957A
:10F83000103898F011270091570001700130D9F36A
:10F8400005E000935700E8950091570001700130E2
:10F85000D9F301E100935700E8953296029709F039
:10F86000C7CF103011F00296E5CF112484E10E9439
:10F87000BFF880E10E94BFF8D4CD8EE10E947FF9ED
:10F88000D0CD81E080930B0391E08CCFF999FECF2E
:10F8900092BD81BDF89A992780B50895262FF999D0
:10F8A000FECF1FBA92BD81BD20BD0FB6F894FA9A63
:0CF8B000F99A0FBE01960895F894FFCF5E
:02F8BC008000CA
:040000031000F000F9
:00000001FF
